{
  "_format": "hh-sol-artifact-1",
  "contractName": "Upload",
  "sourceName": "contracts/Upload.sol",
  "abi": [
    {
      "inputs": [
        {
          "internalType": "string",
          "name": "url",
          "type": "string"
        }
      ],
      "name": "addimgurl",
      "outputs": [],
      "stateMutability": "nonpayable",
      "type": "function"
    },
    {
      "inputs": [
        {
          "internalType": "address",
          "name": "owner",
          "type": "address"
        }
      ],
      "name": "togetaccesspersonsaddress",
      "outputs": [
        {
          "internalType": "address[]",
          "name": "",
          "type": "address[]"
        }
      ],
      "stateMutability": "view",
      "type": "function"
    },
    {
      "inputs": [
        {
          "internalType": "address",
          "name": "owner",
          "type": "address"
        }
      ],
      "name": "togetimgaccess",
      "outputs": [
        {
          "internalType": "string[]",
          "name": "",
          "type": "string[]"
        }
      ],
      "stateMutability": "view",
      "type": "function"
    },
    {
      "inputs": [
        {
          "internalType": "address",
          "name": "wantimgaccess",
          "type": "address"
        }
      ],
      "name": "togiveaccess",
      "outputs": [],
      "stateMutability": "nonpayable",
      "type": "function"
    },
    {
      "inputs": [
        {
          "internalType": "address",
          "name": "wantimgaccess",
          "type": "address"
        }
      ],
      "name": "tonotgiveaccess",
      "outputs": [],
      "stateMutability": "nonpayable",
      "type": "function"
    }
  ],
  "bytecode": "0x6080604052348015600f57600080fd5b506113178061001f6000396000f3fe608060405234801561001057600080fd5b50600436106100575760003560e01c80630b68ae531461005c578063606daf2b1461008c57806372ee5bc6146100a8578063cadd8403146100c4578063fcaba04a146100f4575b600080fd5b61007660048036038101906100719190610abc565b610110565b6040516100839190610ba7565b60405180910390f35b6100a660048036038101906100a19190610abc565b6101dd565b005b6100c260048036038101906100bd9190610d0f565b6105fa565b005b6100de60048036038101906100d99190610abc565b61066e565b6040516100eb9190610e99565b60405180910390f35b61010e60048036038101906101099190610abc565b610884565b005b6060600260008373ffffffffffffffffffffffffffffffffffffffff1673ffffffffffffffffffffffffffffffffffffffff1681526020019081526020016000208054806020026020016040519081016040528092919081815260200182805480156101d157602002820191906000526020600020905b8160009054906101000a900473ffffffffffffffffffffffffffffffffffffffff1673ffffffffffffffffffffffffffffffffffffffff1681526020019060010190808311610187575b50505050509050919050565b600160003373ffffffffffffffffffffffffffffffffffffffff1673ffffffffffffffffffffffffffffffffffffffff16815260200190815260200160002060008273ffffffffffffffffffffffffffffffffffffffff1673ffffffffffffffffffffffffffffffffffffffff16815260200190815260200160002060009054906101000a900460ff16156105f7576000600160003373ffffffffffffffffffffffffffffffffffffffff1673ffffffffffffffffffffffffffffffffffffffff16815260200190815260200160002060008373ffffffffffffffffffffffffffffffffffffffff1673ffffffffffffffffffffffffffffffffffffffff16815260200190815260200160002060006101000a81548160ff02191690831515021790555060005b600260003373ffffffffffffffffffffffffffffffffffffffff1673ffffffffffffffffffffffffffffffffffffffff168152602001908152602001600020805490508110156105f5578173ffffffffffffffffffffffffffffffffffffffff16600260003373ffffffffffffffffffffffffffffffffffffffff1673ffffffffffffffffffffffffffffffffffffffff16815260200190815260200160002082815481106103b6576103b5610ebb565b5b9060005260206000200160009054906101000a900473ffffffffffffffffffffffffffffffffffffffff1673ffffffffffffffffffffffffffffffffffffffff16036105e857600260003373ffffffffffffffffffffffffffffffffffffffff1673ffffffffffffffffffffffffffffffffffffffff1681526020019081526020016000206001600260003373ffffffffffffffffffffffffffffffffffffffff1673ffffffffffffffffffffffffffffffffffffffff1681526020019081526020016000208054905061048a9190610f23565b8154811061049b5761049a610ebb565b5b9060005260206000200160009054906101000a900473ffffffffffffffffffffffffffffffffffffffff16600260003373ffffffffffffffffffffffffffffffffffffffff1673ffffffffffffffffffffffffffffffffffffffff168152602001908152602001600020828154811061051757610516610ebb565b5b9060005260206000200160006101000a81548173ffffffffffffffffffffffffffffffffffffffff021916908373ffffffffffffffffffffffffffffffffffffffff160217905550600260003373ffffffffffffffffffffffffffffffffffffffff1673ffffffffffffffffffffffffffffffffffffffff1681526020019081526020016000208054806105ae576105ad610f57565b5b6001900381819060005260206000200160006101000a81549073ffffffffffffffffffffffffffffffffffffffff021916905590556105f5565b8080600101915050610304565b505b50565b6000803373ffffffffffffffffffffffffffffffffffffffff1673ffffffffffffffffffffffffffffffffffffffff1681526020019081526020016000208190806001815401808255809150506001900390600052602060002001600090919091909150908161066a9190611192565b5050565b60603373ffffffffffffffffffffffffffffffffffffffff168273ffffffffffffffffffffffffffffffffffffffff1614806107305750600160008373ffffffffffffffffffffffffffffffffffffffff1673ffffffffffffffffffffffffffffffffffffffff16815260200190815260200160002060003373ffffffffffffffffffffffffffffffffffffffff1673ffffffffffffffffffffffffffffffffffffffff16815260200190815260200160002060009054906101000a900460ff165b61076f576040517f08c379a0000000000000000000000000000000000000000000000000000000008152600401610766906112c1565b60405180910390fd5b6000808373ffffffffffffffffffffffffffffffffffffffff1673ffffffffffffffffffffffffffffffffffffffff168152602001908152602001600020805480602002602001604051908101604052809291908181526020016000905b828210156108795783829060005260206000200180546107ec90610fb5565b80601f016020809104026020016040519081016040528092919081815260200182805461081890610fb5565b80156108655780601f1061083a57610100808354040283529160200191610865565b820191906000526020600020905b81548152906001019060200180831161084857829003601f168201915b5050505050815260200190600101906107cd565b505050509050919050565b600160003373ffffffffffffffffffffffffffffffffffffffff1673ffffffffffffffffffffffffffffffffffffffff16815260200190815260200160002060008273ffffffffffffffffffffffffffffffffffffffff1673ffffffffffffffffffffffffffffffffffffffff16815260200190815260200160002060009054906101000a900460ff16610a475760018060003373ffffffffffffffffffffffffffffffffffffffff1673ffffffffffffffffffffffffffffffffffffffff16815260200190815260200160002060008373ffffffffffffffffffffffffffffffffffffffff1673ffffffffffffffffffffffffffffffffffffffff16815260200190815260200160002060006101000a81548160ff021916908315150217905550600260003373ffffffffffffffffffffffffffffffffffffffff1673ffffffffffffffffffffffffffffffffffffffff168152602001908152602001600020819080600181540180825580915050600190039060005260206000200160009091909190916101000a81548173ffffffffffffffffffffffffffffffffffffffff021916908373ffffffffffffffffffffffffffffffffffffffff1602179055505b50565b6000604051905090565b600080fd5b600080fd5b600073ffffffffffffffffffffffffffffffffffffffff82169050919050565b6000610a8982610a5e565b9050919050565b610a9981610a7e565b8114610aa457600080fd5b50565b600081359050610ab681610a90565b92915050565b600060208284031215610ad257610ad1610a54565b5b6000610ae084828501610aa7565b91505092915050565b600081519050919050565b600082825260208201905092915050565b6000819050602082019050919050565b610b1e81610a7e565b82525050565b6000610b308383610b15565b60208301905092915050565b6000602082019050919050565b6000610b5482610ae9565b610b5e8185610af4565b9350610b6983610b05565b8060005b83811015610b9a578151610b818882610b24565b9750610b8c83610b3c565b925050600181019050610b6d565b5085935050505092915050565b60006020820190508181036000830152610bc18184610b49565b905092915050565b600080fd5b600080fd5b6000601f19601f8301169050919050565b7f4e487b7100000000000000000000000000000000000000000000000000000000600052604160045260246000fd5b610c1c82610bd3565b810181811067ffffffffffffffff82111715610c3b57610c3a610be4565b5b80604052505050565b6000610c4e610a4a565b9050610c5a8282610c13565b919050565b600067ffffffffffffffff821115610c7a57610c79610be4565b5b610c8382610bd3565b9050602081019050919050565b82818337600083830152505050565b6000610cb2610cad84610c5f565b610c44565b905082815260208101848484011115610cce57610ccd610bce565b5b610cd9848285610c90565b509392505050565b600082601f830112610cf657610cf5610bc9565b5b8135610d06848260208601610c9f565b91505092915050565b600060208284031215610d2557610d24610a54565b5b600082013567ffffffffffffffff811115610d4357610d42610a59565b5b610d4f84828501610ce1565b91505092915050565b600081519050919050565b600082825260208201905092915050565b6000819050602082019050919050565b600081519050919050565b600082825260208201905092915050565b60005b83811015610dbe578082015181840152602081019050610da3565b60008484015250505050565b6000610dd582610d84565b610ddf8185610d8f565b9350610def818560208601610da0565b610df881610bd3565b840191505092915050565b6000610e0f8383610dca565b905092915050565b6000602082019050919050565b6000610e2f82610d58565b610e398185610d63565b935083602082028501610e4b85610d74565b8060005b85811015610e875784840389528151610e688582610e03565b9450610e7383610e17565b925060208a01995050600181019050610e4f565b50829750879550505050505092915050565b60006020820190508181036000830152610eb38184610e24565b905092915050565b7f4e487b7100000000000000000000000000000000000000000000000000000000600052603260045260246000fd5b6000819050919050565b7f4e487b7100000000000000000000000000000000000000000000000000000000600052601160045260246000fd5b6000610f2e82610eea565b9150610f3983610eea565b9250828203905081811115610f5157610f50610ef4565b5b92915050565b7f4e487b7100000000000000000000000000000000000000000000000000000000600052603160045260246000fd5b7f4e487b7100000000000000000000000000000000000000000000000000000000600052602260045260246000fd5b60006002820490506001821680610fcd57607f821691505b602082108103610fe057610fdf610f86565b5b50919050565b60008190508160005260206000209050919050565b60006020601f8301049050919050565b600082821b905092915050565b6000600883026110487fffffffffffffffffffffffffffffffffffffffffffffffffffffffffffffffff8261100b565b611052868361100b565b95508019841693508086168417925050509392505050565b6000819050919050565b600061108f61108a61108584610eea565b61106a565b610eea565b9050919050565b6000819050919050565b6110a983611074565b6110bd6110b582611096565b848454611018565b825550505050565b600090565b6110d26110c5565b6110dd8184846110a0565b505050565b5b81811015611101576110f66000826110ca565b6001810190506110e3565b5050565b601f8211156111465761111781610fe6565b61112084610ffb565b8101602085101561112f578190505b61114361113b85610ffb565b8301826110e2565b50505b505050565b600082821c905092915050565b60006111696000198460080261114b565b1980831691505092915050565b60006111828383611158565b9150826002028217905092915050565b61119b82610d84565b67ffffffffffffffff8111156111b4576111b3610be4565b5b6111be8254610fb5565b6111c9828285611105565b600060209050601f8311600181146111fc57600084156111ea578287015190505b6111f48582611176565b86555061125c565b601f19841661120a86610fe6565b60005b828110156112325784890151825560018201915060208501945060208101905061120d565b8683101561124f578489015161124b601f891682611158565b8355505b6001600288020188555050505b505050505050565b600082825260208201905092915050565b7f416363657373206e6f74206772616e7465640000000000000000000000000000600082015250565b60006112ab601283611264565b91506112b682611275565b602082019050919050565b600060208201905081810360008301526112da8161129e565b905091905056fea2646970667358221220181039adf3786b03930d06ecb2805328620ec8d3ef2accfc5e318cb47ab1a03364736f6c634300081b0033",
  "linkReferences": {},
  "deployedLinkReferences": {}
}